S016000074657374206166746572206C65632E73726563C8
S11300000C9448000C945D000C945D000C945D000D
S11300100C945D000C945D000C9437060C94E3057D
S11300200C940D060C94B9050C941D050C94F30462
S11300300C9454040C945D000C945D000C945D00CD
S11300400C945D000C945D000C945D000C945D00B8
S11300500C945D0076007D0084008B009900920072
S1130060AB00AD00AF00B100B300F300F600F9003F
S1130070FC000101300135013A013F01B600B9002D
S1130080BF00C500CB00D100D7000601DD000E0182
S113009011241FBECFE5D8E0DEBFCDBF10E0A0E63F
S11300A0B0E0E6EBFDE002C005900D92A23EB10780
S11300B0D9F70E9482060C94D9060C940000CF93C1
S11300C0DF931F92CDB7DEB78EE18983CE0101960F
S11300D00E944904E9818E2F90E08E31910508F049
S11300E0D3C0FC01E65DFF4F0C94B00684E00E948F
S11300F01004882351F184E022C085E00E9410049A
S1130100882319F185E01BC086E00E94100488232F
S1130110E1F086E014C087E00E9410048823A9F06F
S113012087E00DC08AE10E941004882371F08AE1FF
S113013006C08BE10E941004882339F08BE10E94F1
S11301401004813021F480E203C081E201C08EE119
S11301500E94470499C061E047C061E048C061E083
S113016049C061E04AC061E08AE148C061E08BE1D6
S113017036C061E08BE10E94910381E04CC061E0F4
S11301808BE10E94910382E046C061E08BE10E9412
S1130190910383E040C061E08BE10E94910384E01D
S11301A03AC061E08BE10E94910385E034C061E0D4
S11301B08BE10E94910386E02EC061E08BE10E94F6
S11301C0910361E084E00E94910361E085E00E9474
S11301D0910361E086E00E94910361E087E00E9460
S11301E0910380E018C060E084E008C060E085E02E
S11301F005C060E086E002C060E087E00E949103F1
S113020043C060E08AE10E94910326C060E08BE174
S11302100E94910387E00E94A70136C060E08BE151
S11302200E94910360E08AE10E94910360E084E00F
S11302300E94910360E085E00E94910360E086E003
S11302400E94910360E087E00E94910387E00E948E
S1130250A70188E00E94A70180E00E94D80414C08E
S113026082E00E94D80484E60EC082E00E94D80492
S113027086E909C082E00E94D80488EC04C082E0C8
S11302800E94D8048FEF8CBF0F90DF91CF91089517
S11302900E942D040E94610681E00E9440040E9495
S11302A04D048FE590E00E944F0466E081E00E94D7
S11302B05C0262E083E00E947D0462E083E00E94CD
S11302C0470582E00E94830582E00E949E0580E04B
S11302D00E94D80462E083E00E949D0482E00E94B0
S11302E0BD04789480E00E945302082F81E00E94AC
S11302F05302182F82E00E945302D82F83E00E94F9
S11303005302C82F033338F086E890E00E94870632
S113031080E00E942E02133338F085E990E00E94B9
S1130320870681E00E942E02D33338F084EA90E0FD
S11303300E94870682E00E942E02C33398F283EB68
S113034090E00E94870683E00E942E02CBCFCF92DA
S1130350DF92EF92FF920F931F93CF93DF932FEFD0
S113036030E037BD26BD883008F06FC090E0FC0156
S1130370EE0FFF1F8E0F9F1FFC01E05AFF4FEF018E
S113038021966F0192E0C90ED11C8F01AE01B60116
S11303902AB53BB5808190E02817390709F448C095
S11303A02AB53BB52817390728F48AB59BB50196B9
S11303B09BBD8ABD28B539B5DA018C9190E0281728
S11303C0390728F488B599B5019699BD88BD93B5C8
S11303D0DB018C91981718F483B58F5F83BD2AB520
S11303E03BB5D8018C9190E08217930728F48AB525
S11303F09BB501979BBD8ABD28B539B5DA018C91AF
S113040090E08217930728F488B599B5019799BDB0
S113041088BD93B5DB018C91891718F483B581509D
S113042083BD8FE097E20197F1F700C00000B0CFE1
S1130430E8B4F9B4288130E0E216F30609F0B0CF4D
S113044033B5D6012C913213ABCFDF91CF911F91ED
S11304500F91FF90EF90DF90CF900895813069F075
S113046028F0823089F08330B1F0089561E080E1B2
S11304700E94910360E081E114C061E082E10E9486
S1130480910360E083E10DC061E084E10E94910387
S113049060E085E106C061E086E10E94910360E0CE
S11304A087E10C9491030E948E0205966AE070E045
S11304B00E949C06CB010895813041F028F08230DF
S11304C039F43F9A3E9804C03E9801C03E9A3F9842
S11304D0379A86B1887F86B986B16770682B66B90A
S11304E0089597B1907E97B997B1892B87B96130F8
S11304F011F43D9A01C03D98369A3699FECF84B1E5
S1130500611104C025B190E0922B089584B195B196
S113051026E0969587952A95E1F7089560E00E9474
S113052071029C01A8E8B3E10E94B606DC01CB018C
S11305302AE0B695A795979587952A95D1F70895BA
S1130540982F9770869586958695613009F44DC0ED
S113055020F0623009F496C008958130B1F028F09B
S1130560823019F1833089F108954AB321E030E0F3
S1130570B90102C0660F771F9A95E2F7CB01942F59
S1130580982B9ABB9BB3809547C047B321E030E0DA
S1130590B90102C0660F771F9A95E2F7CB01942F39
S11305A0982B97BB98B3809549C044B321E030E0C1
S11305B0B90102C0660F771F9A95E2F7CB01942F19
S11305C0982B94BB95B380954AC041B321E030E0A9
S11305D0B90102C0660F771F9A95E2F7CB01942FF9
S11305E0982B91BB92B380954BC08130C1F028F019
S11305F0823031F18330A9F108954AB321E030E02B
S1130600B90102C0660F771F9A95E2F7CB01809576
S1130610942F98239ABB9BB389238BBB089547B32C
S113062021E030E0B90102C0660F771F9A95E2F726
S1130630CB018095942F982397BB98B389234BC003
S113064044B321E030E0B90102C0660F771F9A95E8
S1130650E2F7CB018095942F982394BB95B389231B
S11306604CC041B321E030E0B90102C0660F771FEE
S11306709A95E2F7CB018095942F982391BB92B37E
S113068089234DC08130B9F028F0823031F18330B4
S1130690B1F108954AB321E030E0B90102C0660F18
S11306A0771F9A95E2F7CB01962F909594239ABBE6
S11306B09BB3892BB2CF47B321E030E0B90102C02C
S11306C0660F771F9A95E2F7CB01962F90959423A6
S11306D097BB98B3892B88BB089544B321E030E0DD
S11306E0B90102C0660F771F9A95E2F7CB01962FE6
S11306F09095942394BB95B3892B85BB089541B3FE
S113070021E030E0B90102C0660F771F9A95E2F745
S1130710CB01962F9095942391BB92B3892B82BBE6
S11307200895982F97708695869586956130C1F5C2
S1130730813091F028F08230D9F0833029F1089586
S11307404BB321E030E0B90102C0660F771F9A95E0
S1130750E2F7CB01842B38C048B321E030E0B90183
S113076002C0660F771F9A95E2F7CB01842B3AC03B
S113077045B321E030E0B90102C0660F771F9A95B6
S1130780E2F7CB01842B3CC042B321E030E0B90155
S113079002C0660F771F9A95E2F7CB01842B3EC007
S11307A08130A1F028F08230F9F0833059F10895B6
S11307B04BB321E030E0B90102C0660F771F9A9570
S11307C0E2F7CB01809584238BBB089548B321E0E5
S11307D030E0B90102C0660F771F9A95E2F7CB01AA
S11307E08095842388BB089545B321E030E0B901A6
S11307F002C0660F771F9A95E2F7CB018095842398
S113080085BB089542B321E030E0B90102C0660F10
S1130810771F9A95E2F7CB018095842382BB0895D4
S1130820282F2770869586958695813049F030F07B
S1130830823041F0833079F480B305C089B303C0BA
S113084086B301C083B390E002C0959587952A953D
S1130850E2F78170089580E008950F931F93CF937A
S113086002EC10E0C0E0F80161918F018C2F0E942E
S1130870A002CF5FC032B9F7CF911F910F910895B5
S1130880811102C06C9A01C06C986E9A08958FB958
S113089008952FB1FC01208308956F9A08959093D1
S11308A079008093780008951F920F920FB60F92EB
S11308B011242F933F934F935F936F937F938F9361
S11308C09F93AF93BF93EF93FF93E0917800F091E0
S11308D07900309709F00995FF91EF91BF91AF919D
S11308E09F918F917F916F915F914F913F912F9144
S11308F00F900FBE0F901F901895813059F038F06B
S1130900823071F0833091F483B780640BC083B775
S11309108F7B02C083B7806483BF83B7877F05C0A2
S113092083B78F7B83BF83B7886083BF83B7887F98
S113093083BF83B7682B63BF0895813059F038F0C3
S1130940823071F0833091F485B580640BC085B535
S11309508F7B02C085B5806485BD85B5877F05C062
S113096085B58F7B85BD85B5886085BD85B5887F58
S113097085BD85B5682B65BD0895813049F028F0A3
S1130980823061F0833069F0089585B58F7E02C0AE
S113099085B5806185BD85B58F7D08C085B58F7EA1
S11309A002C085B5806185BD85B5806285BD089529
S11309B0813049F028F0823061F0833069F0089585
S11309C083B78F7E02C083B7806183BF83B78F7D77
S11309D008C083B78F7E02C083B7806183BF83B7AB
S11309E0806283BF08951F920F920FB60F92112455
S11309F02F933F934F935F936F937F938F939F9323
S1130A00AF93BF93EF93FF93E0918400F09185003F
S1130A10E230F10509F00995FF91EF91BF91AF9193
S1130A209F918F917F916F915F914F913F912F9102
S1130A300F900FBE0F901F9018951F920F920FB634
S1130A400F9211242F933F934F935F936F937F9350
S1130A508F939F93AF93BF93EF93FF93E0918200A3
S1130A60F0918300E230F10509F00995FF91EF91CF
S1130A70BF91AF919F918F917F916F915F914F91B2
S1130A803F912F910F900FBE0F901F9018958230B9
S1130A90D9F050F4882379F0813071F58FB58E7FC9
S1130AA08FBD8FB58D7F21C08330D1F0843021F587
S1130AB08FB5816017C08FB58E7F8FBD8FB58D7F49
S1130AC08FBD8EB5877F08C08FB58E7F8FBD8FB5E4
S1130AD08D7F8FBD8EB588608EBD8EB58F7E0BC029
S1130AE08FB58E7F8FBD8FB582608FBD8EB58860C8
S1130AF08EBD8EB580618EBD8EB5887F8EBD8EB560
S1130B00682B6EBD0895813049F028F0823061F081
S1130B10833069F008958FB58F7B02C08FB58064F0
S1130B208FBD8FB58F7708C08FB58F7B02C08FB50F
S1130B3080648FBD8FB580688FBD0895813049F082
S1130B4028F0823061F0833069F008958FB58F7E8C
S1130B5002C08FB580618FBD8FB58F7D08C08FB502
S1130B608F7E02C08FB580618FBD8FB580628FBDCF
S1130B7008951F920F920FB60F9211242F933F9353
S1130B804F935F936F937F938F939F93AF93BF9391
S1130B90EF93FF93E0918000F0918100E230F10542
S1130BA009F00995FF91EF91BF91AF919F918F91BA
S1130BB07F916F915F914F913F912F910F900FBE55
S1130BC00F901F9018951F920F920FB60F92112439
S1130BD02F933F934F935F936F937F938F939F9341
S1130BE0AF93BF93EF93FF93E0917E00F0917F006A
S1130BF0E230F10509F00995FF91EF91BF91AF91B2
S1130C009F918F917F916F915F914F913F912F9120
S1130C100F900FBE0F901F9018951F920F920FB652
S1130C200F9211242F933F934F935F936F937F936E
S1130C308F939F93AF93BF93EF93FF93E0917C00C7
S1130C40F0917D00E230F10509F00995FF91EF91F3
S1130C50BF91AF919F918F917F916F915F914F91D0
S1130C603F912F910F900FBE0F901F9018951F92D8
S1130C700F920FB60F9211242F933F934F935F93CC
S1130C806F937F938F939F93AF93BF93EF93FF9350
S1130C90E0917A00F0917B00E230F10509F00995CA
S1130CA0FF91EF91BF91AF919F918F917F916F9140
S1130CB05F914F913F912F910F900FBE0F901F9016
S1130CC01895599A80B5806880BD80B58F7B80BDAA
S1130CD080B5806180BD80B5806280BD80B5826052
S1130CE080BD80B5846080BD529880B5886080BD29
S1130CF010BC87E689B9539A549A08955D9BFECF38
S1130D008CB908950E94480180E090E008950F9303
S1130D101F93CF938C01C0E0F801EC0FF11D80818B
S1130D20882321F00E947E06CF5FF6CF8DE0CF911D
S1130D301F910F910C947E0697FB072E16F40094D6
S1130D4007D077FD09D00E94C50607FC05D03EF404
S1130D50909581959F4F0895709561957F4F089563
S1130D60EE0FFF1F0590F491E02D0994A29FB001AE
S1130D70B39FC001A39F700D811D1124911DB29FCB
S1130D80700D811D1124911D0895AA1BBB1B51E1F7
S1130D9007C0AA1FBB1FA617B70710F0A61BB70BE7
S1130DA0881F991F5A95A9F780959095BC01CD018C
S1090DB00895F894FFCF42
S1130DB6FF0000FFA500FFFF0000FF000000FFFF8B
S1130DC6FFFF9E044F000000020002000200020022
S1130DD602000200020066697265206F6E20726F5F
S1130DE66F6D20310066697265206F6E20726F6FB9
S1130DF66D20320066697265206F6E20726F6F6DAA
S1130E0620330066697265206F6E20726F6F6D20E5
S1130E163400010101010000000000000000000090
S1130E2600000000000000000000000000000000B8
S1050E360000B6
S9030000FC
