S016000074657374206166746572206C65632E73726563C8
S11300000C942A000C943F000C943F000C943F0085
S11300100C943F000C943F000C943F000C943F0060
S11300200C943F000C943F000C943F000C943F0050
S11300300C943F000C943F000C943F000C943F0040
S11300400C943F000C943F000C943F000C943F0030
S11300500C943F0011241FBECFE5D8E0DEBFCDBF16
S113006010E0A0E6B0E0E4EDF0E002C005900D92EF
S1130070A036B107D9F70E9441000C9468000C9493
S113008000008FEF8ABB87BB84BB81BB12BA8FE3AE
S113009085BB82B3816082BB82B38D7F82BB2FEF2D
S11300A082E597E0215080409040E1F700C00000D5
S11300B082B3826082BB82B38E7F82BB2FEF82E5E4
S11300C097E0215080409040E1F700C00000E1CF6C
S10700D0F894FFCFCE
S9030000FC
