S016000074657374206166746572206C65632E73726563C8
S11300000C9432000C944F000C944F000C944F004D
S11300100C944F000C944F000C944F000C944F0020
S11300200C944F000C944F000C944F000C944F0010
S11300300C944F000C946E080C944F000C944F00D9
S11300400C944F000C944F000C944F000C944F00F0
S11300500C944F0084018C019401BB019C01A40108
S1130060AC01B40111241FBECFE5D8E0DEBFCDBF83
S113007012E0A0E6B0E0E2E0F2E102C005900D92E9
S1130080AA3BB107D9F722E0AAEBB2E001C01D9266
S1130090A13DB207E1F70E9422060C94FF080C94DC
S11300A00000CF93DF93CDB7DEB764970FB6F89413
S11300B0DEBF0FBECDBF8091BA02811114C0CE0144
S11300C001960E9497080E949405CE0101960E9411
S11300D081052FEF89E698E1215080409040E1F7B7
S11300E000C00000FFCF64960FB6F894DEBF0FBEC9
S11300F0CDBFDF91CF9108950E94B4070E94F90407
S11301000E9452040E9446080E94670881E590E01C
S11301100E94690880E00E943A08789484E090E0A4
S11301200E94C707633071058105910511F40E948F
S1130130060380E690E00E94810560E081E00E9471
S1130140790581E790E00E9481052FEF84E39CE02C
S1130150215080409040E1F700C000000E949405C7
S113016082E090E00E94C7076F3F71058105910509
S1130170C9F48DE790E00E94810560E081E00E946F
S1130180790587E890E00E9481052FEF89E698E1E0
S1130190215080409040E1F700C000000E94940587
S11301A00E949403C0E084E090E00E94C70763309B
S11301B071058105910508F047C0C11145C00E9431
S11301C0EF0365EC72E08BEB92E00E94C302C82F50
S11301D08130A9F482E990E00E94810560E084E026
S11301E090E00E9405082FEF82E597E021508040BF
S11301F09040E1F700C000000E949405D4CF8DE93F
S113020090E00E94810584E090E00E94C7076F5F40
S113021084E090E00E9405082FEF82E597E02150EA
S113022080409040E1F700C000000E94940584E003
S113023090E00E94C707633071058105910509F0BC
S1130240B2CF0E940603AFCF0E941C048091BA0271
S11302508111FECF0E943301C82F0E9494058C2F78
S11302600E947301F3CF0E94940588EA90E00E94F3
S113027081052FEF81EE94E0215080409040E1F71A
S113028000C000000E9494058AEB90E00E94810562
S113029060E081E00E9479058AEC90E00E9481058B
S11302A080E09FEF980F943020F00E945D0480530B
S11302B0F8CF8430B9F40E9494058AED90E00E944E
S11302C0810560E081E00E94790588EE90E00E945B
S11302D0810580E09BEF980F943020F00E945D042C
S11302E08053F8CF08951F93CF93DF93C82F0E94B4
S11302F094058C2F90E0FC013197E830F105D8F596
S1130300E65DFF4F0C94D70886EF90E00E948105CC
S11303101BE0D6E0C0E015C18FEF90E00E9481059C
S11303201CE0D7E0C1E00DC188E091E00E948105A6
S11303301DE0D8E0C2E005C181E191E00E948105A1
S11303401EE0D9E0C3E0FDC08AE191E00E9481058E
S11303501BE1D0E0C4E0F5C081E291E00E94810598
S11303601FE0DAE0C5E0EDC08EE291E00E94810575
S11303701DE1DCE102C010E0D0E0C8E060E081E013
S11303800E94790581E491E00E94810580E09FEF5D
S1130390980F933020F00E945D048053F8CF813091
S11303A009F0B2C0C53009F03FC02FEF80E792E0FA
S11303B0215080409040E1F700C000000E94940565
S11303C080E591E00E9481052FEF81EE94E02150B9
S11303D080409040E1F700C000000E94940581E64F
S11303E091E00E94810560E081E00E94790583E745
S11303F091E00E948105C0E08FEF8C0F843028F0DB
S11304000E945D04C0EDC80FF7CF8D2F0E944108F4
S11304102FEF80E792E0215080409040E1F700C048
S113042000008FE08C0F4FC0C43009F057C02FEF8D
S113043080E792E0215080409040E1F700C0000046
S11304400E9494058AE891E00E9481052FEF81EED5
S113045094E0215080409040E1F700C000000E94E9
S113046094058BE991E00E94810560E081E00E949F
S113047079058AEA91E00E94810590E08FEF890F67
S1130480843028F00E945D0490ED980FF7CF83E14B
S1130490890F9430C1F40E9494058AEB91E00E9484
S11304A0810560E081E00E94790589EC91E00E9479
S11304B0810580E09BEF980F943020F00E945D044A
S11304C08053F8CF8E5E0E9441080E94940585E80F
S11304D091E0DF91CF911F910C9481058D2F0E94A3
S11304E041082FEF80E792E0215080409040E1F7EF
S11304F000C000002FEF80E792E021508040904040
S1130500E1F700C0000018C08230B1F4812F0E94CE
S113051041080E94940585E891E00E9481052FEF2F
S113052080E792E0215080409040E1F700C0000055
S1130530DF91CF911F910895DF91CF911F910C947A
S113054094058C2F0E9441082FEF80E792E0215000
S113055080409040E1F700C000008FE10E94410814
S1130560803219F48AE391E002C08DE391E00E94A5
S1130570810504CFFC019F01281B390B41914111D6
S1130580FACF822F0895EF92FF920F931F93CF9388
S1130590DF938C01D62FC72F0E94BA02E82E682F52
S11305A070E080E090E00E949E058D2F9C2F0E94B9
S11305B0BA02F82E682F70E080E090E00E949E0559
S11305C0EF100BC0D801ED2FFC2F9D91992339F02A
S11305D08191882321F09817C1F380E001C081E064
S11305E0DF91CF911F910F91FF90EF900895282FE5
S11305F0DB01FC018E2F821B841730F491918D91C5
S11306009817C1F380E0089581E00895FF920F9355
S11306101F93CF93DF9300D000D01F92CDB7DEB7E6
S11306200E9494058E010F5F1F4F85E0F80111921F
S11306308A95E9F788ED91E00E948105FFEF24E3B4
S11306408CE0F15020408040E1F700C000000E949F
S1130650940587EE91E00E94810560E081E00E94AC
S11306607905F12C0E945D048435E1F390ED980F37
S11306709A3048F4F801EF0DF11D9083F3948AE267
S11306800E947705EFCF8D3369F70E94940545E00A
S1130690B80185E892E00E94F702F82E91E08913F0
S11306A026C087EF91E00E94810560E081E00E940E
S11306B0790581E092E00E948105EFEFF1EE24E0FC
S11306C0E150F0402040E1F700C000000E94940592
S11306D060E084E090E00F900F900F900F900F90E7
S11306E0DF91CF911F910F91FF900C9405088EE03C
S11306F092E00E9481058FEF91EEE4E081509040FA
S1130700E040E1F700C000000E949405FF2009F4D6
S113071091CF0F900F900F900F900F90DF91CF918A
S11307201F910F91FF900895CF9360E084E090E0D3
S11307300E94050888E192E00E94810587E292E028
S11307400E9481052FEF82E597E021508040904080
S1130750E1F700C000000E94940560E080E00E9480
S1130760790583E392E00E94810560E081E00E94C4
S11307707905C0E00E945D048435E1F390ED980FA3
S11307809A3050F4EC2FF0E0EB53FD4F8083CF5FB1
S11307908AE20E947705EECF8D3361F7EC2FF0E00B
S11307A0EB53FD4F10824AE065EC72E080E190E08B
S11307B00E940E0884E492E00E94810561E082E0D8
S11307C090E00E9405082FEF84E39CE021508040D4
S11307D09040E1F700C00000CF910C949405CF93B2
S11307E08FE492E00E94810560E081E00E94790537
S11307F0C0E00E945D048435E1F390ED980F9A30D7
S113080050F4EC2FF0E0EB53FD4F8083CF5F8AE28E
S11308100E947705EECF8D3361F70E949405EC2F8B
S1130820F0E0EB53FD4F10824BEB52E06AE080E1C5
S113083090E0CF910C94D307CF938BE592E00E9484
S1130840810560E081E00E94790589E692E00E94DA
S11308508105C0E08FEC8C0F823020F00E945D0493
S1130860C82FF8CF0E949405C133D1F40E94EF033E
S113087065EC72E08BEB92E00E94C302882319F0CE
S1130880CF910C94940384E792E00E9481052FEFAA
S113089080E792E0215080409040E1F700C00000E2
S11308A0CF910895CF93C0E161E08C2F0E94180787
S11308B0CF5FC431C9F7CF910895DF92EF92FF92D1
S11308C00F931F93CF93DF939AEAE92E92E0F92EC8
S11308D0C0E1D4E560E08C2F0E94180700E010E02E
S11308E084E1D82ED00E8D2D0E949707811109C066
S11308F0F701E00FF11FD0818D2D0E949707882307
S1130900D9F30F5F1F4F0430110551F761E08C2FAD
S11309100E941807CF5F84E0E80EF11CC431D1F6C1
S11309208D2FDF91CF911F910F91FF90EF90DF906A
S11309300895CF93C82F60E089E00E9418076C2FB8
S1130940661F6627661F87E00E941807C6FB662796
S113095060F986E00E941807C5FB662760F985E008
S11309600E941807C4FB662760F984E00E941807F8
S113097061E088E00E9418078FEC97E00197F1F797
S113098000C0000060E088E00E9418078FEC97E048
S11309900197F1F700C00000C3FB662760F987E008
S11309A00E941807C2FB662760F986E00E941807B8
S11309B0C1FB662760F985E00E9418076C2F6170FF
S11309C084E00E94180761E088E00E9418078FEC19
S11309D097E00197F1F700C0000060E088E00E9412
S11309E018078FEC97E00197F1F700C00000CF9152
S11309F008952FE788E391E0215080409040E1F78B
S1130A0000C0000082E00E94990488E20E949904D8
S1130A108CE00E94990481E00E9499048FEC97E095
S1130A200197F1F700C0000086E00C949904CF937D
S1130A30C82F61E089E00E9418076C2F661F6627A3
S1130A40661F87E00E941807C6FB662760F986E0E8
S1130A500E941807C5FB662760F985E00E94180705
S1130A60C4FB662760F984E00E94180761E088E00F
S1130A700E9418078FEC97E00197F1F700C000007F
S1130A8060E088E00E9418078FEC97E00197F1F787
S1130A9000C00000C3FB662760F987E00E941807C6
S1130AA0C2FB662760F986E00E941807C1FB66272F
S1130AB060F985E00E9418076C2F617084E00E9441
S1130AC0180761E088E00E9418078FEC97E001970F
S1130AD0F1F700C0000060E088E00E9418078FEC86
S1130AE097E00197F1F700C00000CF9108950C94AE
S1130AF01705811102C080E801C080EC860F0C94B8
S1130B0099040F931F93CF938C01C0E0F801EC0F6D
S1130B10F11D8081882321F00E941705CF5FF6CF55
S1130B20CF911F910F91089581E00E9499048FEC59
S1130B3097E00197F1F700C0000008954F925F928B
S1130B406F927F92AF92BF92CF92DF92EF92FF9219
S1130B501F93CF93DF93CDB7DEB764970FB6F894A6
S1130B60DEBF0FBECDBF6B017C0161157105810530
S1130B709105B1F480E364960FB6F894DEBF0FBE1E
S1130B80CDBFDF91CF911F91FF90EF90DF90CF9079
S1130B90BF90AF907F906F905F904F900C9417052B
S1130BA097FF0BC08DE20E941705F094E094D09457
S1130BB0C094C11CD11CE11CF11C10E09AE0492E28
S1130BC0512C612C712CAA24A394B12CAC0EBD1E03
S1130BD0A10EB11CC701B601A30192010E94B8087D
S1130BE0605DF501608381E0810F69017A01C114C0
S1130BF0D104E104F10411F0182FE5CFF12EF7FC34
S1130C000DC0E1E0F0E0EC0FFD1FEF0DF11DF7FC6E
S1130C10FA9580810E941705FA94F1CF64960FB675
S1130C20F894DEBF0FBECDBFDF91CF911F91FF902F
S1130C30EF90DF90CF90BF90AF907F906F905F90D8
S1130C404F9008950E947C0080E090E00895982FD2
S1130C509770869586958695613009F44DC020F08D
S1130C60623009F496C008958130B1F028F08230E2
S1130C7019F1833089F108954AB321E030E0B901D4
S1130C8002C0660F771F9A95E2F7CB01942F982B39
S1130C909ABB9BB3809547C047B321E030E0B901CC
S1130CA002C0660F771F9A95E2F7CB01942F982B19
S1130CB097BB98B3809549C044B321E030E0B901B3
S1130CC002C0660F771F9A95E2F7CB01942F982BF9
S1130CD094BB95B380954AC041B321E030E0B9019B
S1130CE002C0660F771F9A95E2F7CB01942F982BD9
S1130CF091BB92B380954BC08130C1F028F0823013
S1130D0031F18330A9F108954AB321E030E0B9010B
S1130D1002C0660F771F9A95E2F7CB018095942F56
S1130D2098239ABB9BB389238BBB089547B321E0D7
S1130D3030E0B90102C0660F771F9A95E2F7CB0144
S1130D408095942F982397BB98B389234BC044B3C1
S1130D5021E030E0B90102C0660F771F9A95E2F7EF
S1130D60CB018095942F982394BB95B389234CC0D1
S1130D7041B321E030E0B90102C0660F771F9A95B4
S1130D80E2F7CB018095942F982391BB92B38923EA
S1130D904DC08130B9F028F0823031F18330B1F1A7
S1130DA008954AB321E030E0B90102C0660F771F0D
S1130DB09A95E2F7CB01962F909594239ABB9BB317
S1130DC0892BB2CF47B321E030E0B90102C0660FEE
S1130DD0771F9A95E2F7CB01962F9095942397BBB2
S1130DE098B3892B88BB089544B321E030E0B9015E
S1130DF002C0660F771F9A95E2F7CB01962F909564
S1130E00942394BB95B3892B85BB089541B321E00A
S1130E1030E0B90102C0660F771F9A95E2F7CB0163
S1130E20962F9095942391BB92B3892B82BB0895FE
S1130E30982F97708695869586956130C1F5813097
S1130E4091F028F08230D9F0833029F108954BB322
S1130E5021E030E0B90102C0660F771F9A95E2F7EE
S1130E60CB01842B38C048B321E030E0B90102C083
S1130E70660F771F9A95E2F7CB01842B3AC045B3EE
S1130E8021E030E0B90102C0660F771F9A95E2F7BE
S1130E90CB01842B3CC042B321E030E0B90102C055
S1130EA0660F771F9A95E2F7CB01842B3EC0813001
S1130EB0A1F028F08230F9F0833059F108954BB352
S1130EC021E030E0B90102C0660F771F9A95E2F77E
S1130ED0CB01809584238BBB089548B321E030E097
S1130EE0B90102C0660F771F9A95E2F7CB0180958E
S1130EF0842388BB089545B321E030E0B90102C0E2
S1130F00660F771F9A95E2F7CB018095842385BB02
S1130F10089542B321E030E0B90102C0660F771FA3
S1130F209A95E2F7CB018095842382BB0895282FFC
S1130F302770869586958695813049F030F0823009
S1130F4041F0833079F480B305C089B303C086B31C
S1130F5001C083B390E002C0959587952A95E2F786
S1130F608170089580E008950F931F93CF930AE84A
S1130F7012E0C0E0F80161918F018C2F0E942706D6
S1130F80CF5FC032B9F7CF911F910F9108959FBBE6
S1130F908EBBE198E298E09AE099FECF6DB370E0E1
S1130FA080E090E00895AF92BF92CF92DF92EF92EB
S1130FB0FF920F931F93CF93DF936C01D62F8A0177
S1130FC00E94C707F80160837801C0E0CD1791F053
S1130FD0F70181917F01882369F0CF5F8C2F90E026
S1130FE05801A80EB91E8C0D9D1D0E94C707F5015E
S1130FF06083ECCFDF91CF911F910F91FF90EF9021
S1131000DF90CF90BF90AF9008959FBB8EBB6DBB18
S1131010E098E29AE19AE199FECF0895CF92DF92A7
S1131020EF92FF920F931F93CF93DF936C01D42F12
S11310308B017C01C0E0CD130EC060E0C6018D0FB2
S1131040911DDF91CF911F910F91FF90EF90DF9051
S1131050CF900C940508F80161918F01662341F04B
S1131060C7010E940508CF5F8FEFE81AF80AE3CFA3
S1131070DC2FE3CF811102C06C9A01C06C986E9A88
S113108008958FB9779BFECF8FB10895599880B595
S1131090806880BD80B58F7B80BD80B5806180BD58
S11310A080B5806280BD80B5826080BD80B584607B
S11310B080BD529880B5886080BD10BC83E389B937
S11310C0539A549A08955F9BFECF8CB10895579A12
S11310D008959093D0028093CF0208951F920F92A7
S11310E00FB60F9211242F933F934F935F936F93F7
S11310F07F938F939F93AF93BF93EF93FF93E0916D
S1131100CF02F091D002309709F00995FF91EF9149
S1131110BF91AF919F918F917F916F915F914F910B
S11311203F912F910F900FBE0F901F901895EF9243
S1131130FF920F931F93CF938C010E946308F801D1
S11311408083C0E0F801EC0FF11D80818D3049F0FF
S1131150CF5F7801EC0EF11C0E946308F7018083D5
S1131160F1CF1082CF911F910F91FF90EF900895CE
S1131170052E97FB1EF400940E94CF0857FD07D05C
S11311800E94DD0807FC03D04EF40C94CF08509560
S11311904095309521953F4F4F4F5F4F089590955F
S11311A08095709561957F4F8F4F9F4F0895EE0FF7
S11311B0FF1F0590F491E02D0994A1E21A2EAA1BB9
S11311C0BB1BFD010DC0AA1FBB1FEE1FFF1FA217F3
S11311D0B307E407F50720F0A21BB30BE40BF50BF0
S11311E0661F771F881F991F1A9469F76095709579
S11311F0809590959B01AC01BD01CF010895F894B1
S1051200FFCF1A
S113120257656C636F6D6520746F20736D617274C2
S113121200686F6D652073797374656D004C6F6738
S1131222696E20666F720066697273742074696DE8
S11312326500526967687420706173730077726F16
S11312426E6720706173730073656C6563742074D8
S11312526865206F7074696F6E00313A526F6F6DFA
S11312623120323A526F6F6D3200333A526F6F6DE2
S11312723320343A4D6F72652000353A526F6F6DE8
S11312823420363A52474200373A6169725F63202A
S1131292383A616C6C00526F6F6D3120533A0052D0
S11312A26F6F6D3220533A00526F6F6D3320533A91
S11312B200526F6F6D3420533A0072676220533AC2
S11312C20041697220436F6E642E20533A00636FAB
S11312D26E74726F6C20616C6C004F4E004F464608
S11312E200312D4F6E322D4F6666332D5245540018
S11312F2656E746572207468652073706565642018
S113130200313A7370656564312D323A73706565E4
S1131312643200333A7370656564332D343A737002
S11313226565643400646F6E6500656E7465722071
S113133274686520636F6C6F722000313A72656461
S11313422D323A6F72616E676500333A79656C6C5F
S11313526F772D343A6D6F726500353A6772656541
S11313626E20363A626C756500373A77686974653F
S113137220383A70696E6B0053797374656D20621C
S11313826C65636B656400696E736572742074685E
S1131392652070616E200052696768742070616E06
S11313A20073797374656D20726573657400777266
S11313B26F6E672070616E005365742041646D69BD
S11313C26E20706173730041646D696E2070617385
S11313D2733A006D617820706173732069733920E8
S11313E26E756D0050617373205361766564006994
S11313F26E73657274207061737300312063686167
S11314026E67652070617373003220636F6E746956
S11314126E7565006661696C656420746F2063682B
S1131422616E6765000405060708000000000000FD
S113143200000000000000000100000000000202A1
S1131442020201000000000000003738392F343551
S10D1452362A3132332D43303D2B8E
S9030000FC
